{
  "contractName": "DDoSDefense",
  "abi": [
    {
      "inputs": [],
      "stateMutability": "nonpayable",
      "type": "constructor"
    },
    {
      "anonymous": false,
      "inputs": [
        {
          "indexed": false,
          "internalType": "string",
          "name": "ip",
          "type": "string"
        }
      ],
      "name": "IPBlacklisted",
      "type": "event"
    },
    {
      "anonymous": false,
      "inputs": [
        {
          "indexed": false,
          "internalType": "string",
          "name": "ip",
          "type": "string"
        }
      ],
      "name": "IPWhitelisted",
      "type": "event"
    },
    {
      "inputs": [],
      "name": "owner",
      "outputs": [
        {
          "internalType": "address",
          "name": "",
          "type": "address"
        }
      ],
      "stateMutability": "view",
      "type": "function",
      "constant": true
    },
    {
      "inputs": [
        {
          "internalType": "string",
          "name": "ip",
          "type": "string"
        }
      ],
      "name": "addToBlacklist",
      "outputs": [],
      "stateMutability": "nonpayable",
      "type": "function"
    },
    {
      "inputs": [
        {
          "internalType": "string",
          "name": "ip",
          "type": "string"
        }
      ],
      "name": "removeFromBlacklist",
      "outputs": [],
      "stateMutability": "nonpayable",
      "type": "function"
    },
    {
      "inputs": [
        {
          "internalType": "string",
          "name": "ip",
          "type": "string"
        }
      ],
      "name": "isBlacklisted",
      "outputs": [
        {
          "internalType": "bool",
          "name": "",
          "type": "bool"
        }
      ],
      "stateMutability": "view",
      "type": "function",
      "constant": true
    }
  ],
  "bytecode": "0x608060405234801561001057600080fd5b50336000806101000a81548173ffffffffffffffffffffffffffffffffffffffff021916908373ffffffffffffffffffffffffffffffffffffffff160217905550610842806100606000396000f3fe608060405234801561001057600080fd5b506004361061004c5760003560e01c806351749736146100515780638da5cb5b1461006d578063ed6229b21461008b578063ff626727146100a7575b600080fd5b61006b6004803603810190610066919061046c565b6100d7565b005b610075610241565b604051610082919061060c565b60405180910390f35b6100a560048036038101906100a0919061046c565b610265565b005b6100c160048036038101906100bc919061046c565b6103cf565b6040516100ce9190610627565b60405180910390f35b60008054906101000a900473ffffffffffffffffffffffffffffffffffffffff1673ffffffffffffffffffffffffffffffffffffffff163373ffffffffffffffffffffffffffffffffffffffff1614610165576040517f08c379a000000000000000000000000000000000000000000000000000000000815260040161015c906106a4565b60405180910390fd5b60018160405161017591906105f5565b908152602001604051809103902060009054906101000a900460ff16156101d1576040517f08c379a00000000000000000000000000000000000000000000000000000000081526004016101c890610684565b60405180910390fd5b600180826040516101e291906105f5565b908152602001604051809103902060006101000a81548160ff0219169083151502179055507f8a8fd373a2f1a67b30bb109db9e3f3569368569b8e69a8a82a2aef1c133c9745816040516102369190610642565b60405180910390a150565b60008054906101000a900473ffffffffffffffffffffffffffffffffffffffff1681565b60008054906101000a900473ffffffffffffffffffffffffffffffffffffffff1673ffffffffffffffffffffffffffffffffffffffff163373ffffffffffffffffffffffffffffffffffffffff16146102f3576040517f08c379a00000000000000000000000000000000000000000000000000000000081526004016102ea906106a4565b60405180910390fd5b60018160405161030391906105f5565b908152602001604051809103902060009054906101000a900460ff1661035e576040517f08c379a000000000000000000000000000000000000000000000000000000000815260040161035590610664565b60405180910390fd5b600060018260405161037091906105f5565b908152602001604051809103902060006101000a81548160ff0219169083151502179055507fb7cf4c452c7d167e3a838b6b75c380b8f3988a60b1a29233fae45f80ad5bfef0816040516103c49190610642565b60405180910390a150565b60006001826040516103e191906105f5565b908152602001604051809103902060009054906101000a900460ff169050919050565b6000610417610412846106f5565b6106c4565b90508281526020810184848401111561042f57600080fd5b61043a84828561078a565b509392505050565b600082601f83011261045357600080fd5b8135610463848260208601610404565b91505092915050565b60006020828403121561047e57600080fd5b600082013567ffffffffffffffff81111561049857600080fd5b6104a484828501610442565b91505092915050565b6104b68161074c565b82525050565b6104c58161075e565b82525050565b60006104d682610725565b6104e08185610730565b93506104f0818560208601610799565b6104f9816107fb565b840191505092915050565b600061050f82610725565b6105198185610741565b9350610529818560208601610799565b80840191505092915050565b6000610542601383610730565b91507f4950206e6f7420696e20626c61636b6c697374000000000000000000000000006000830152602082019050919050565b6000610582601683610730565b91507f495020616c726561647920626c61636b6c6973746564000000000000000000006000830152602082019050919050565b60006105c2600e83610730565b91507f4e6f7420617574686f72697a65640000000000000000000000000000000000006000830152602082019050919050565b60006106018284610504565b915081905092915050565b600060208201905061062160008301846104ad565b92915050565b600060208201905061063c60008301846104bc565b92915050565b6000602082019050818103600083015261065c81846104cb565b905092915050565b6000602082019050818103600083015261067d81610535565b9050919050565b6000602082019050818103600083015261069d81610575565b9050919050565b600060208201905081810360008301526106bd816105b5565b9050919050565b6000604051905081810181811067ffffffffffffffff821117156106eb576106ea6107cc565b5b8060405250919050565b600067ffffffffffffffff8211156107105761070f6107cc565b5b601f19601f8301169050602081019050919050565b600081519050919050565b600082825260208201905092915050565b600081905092915050565b60006107578261076a565b9050919050565b60008115159050919050565b600073ffffffffffffffffffffffffffffffffffffffff82169050919050565b82818337600083830152505050565b60005b838110156107b757808201518184015260208101905061079c565b838111156107c6576000848401525b50505050565b7f4e487b7100000000000000000000000000000000000000000000000000000000600052604160045260246000fd5b6000601f19601f830116905091905056fea2646970667358221220da8b6b4df1357e8cfc48b620d252f705e37c006df730ac7af5f15162c73c177964736f6c63430008000033",
  "immutableReferences": {},
  "source": "// SPDX-License-Identifier: MIT\npragma solidity ^0.8.0;\n\ncontract DDoSDefense {\n    address public owner;\n    mapping(string => bool) private blacklist;\n\n    event IPBlacklisted(string ip);\n    event IPWhitelisted(string ip);\n\n    modifier onlyOwner() {\n        require(msg.sender == owner, \"Not authorized\");\n        _;\n    }\n\n    constructor() {\n        owner = msg.sender;\n    }\n\n    function addToBlacklist(string memory ip) public onlyOwner {\n        require(!blacklist[ip], \"IP already blacklisted\");\n        blacklist[ip] = true;\n        emit IPBlacklisted(ip);\n    }\n\n    function removeFromBlacklist(string memory ip) public onlyOwner {\n        require(blacklist[ip], \"IP not in blacklist\");\n        blacklist[ip] = false;\n        emit IPWhitelisted(ip);\n    }\n\n    function isBlacklisted(string memory ip) public view returns (bool) {\n        return blacklist[ip];\n    }\n}\n",
  "sourcePath": "/home/agasthya/college/Projects/DDos-Defense-Security-using-Multi-Layed-Approach-main/contracts/DDosDefense.sol",
  "compiler": {
    "name": "solc",
    "version": "0.8.0+commit.c7dfd78e.Emscripten.clang"
  },
  "schemaVersion": "3.4.8",
  "updatedAt": "2025-01-20T17:55:33.658Z",
  "networkType": "ethereum",
  "devdoc": {
    "kind": "dev",
    "methods": {},
    "version": 1
  },
  "userdoc": {
    "kind": "user",
    "methods": {},
    "version": 1
  }
}